{
  "contractName": "Bank",
  "abi": [
    {
      "constant": false,
      "inputs": [],
      "name": "enroll",
      "outputs": [
        {
          "name": "",
          "type": "bool"
        }
      ],
      "payable": false,
      "stateMutability": "nonpayable",
      "type": "function"
    },
    {
      "constant": false,
      "inputs": [
        {
          "name": "customer",
          "type": "address"
        },
        {
          "name": "value",
          "type": "uint256"
        }
      ],
      "name": "deposit",
      "outputs": [
        {
          "name": "res",
          "type": "bool"
        }
      ],
      "payable": false,
      "stateMutability": "nonpayable",
      "type": "function"
    },
    {
      "constant": false,
      "inputs": [
        {
          "name": "customer",
          "type": "address"
        },
        {
          "name": "amount",
          "type": "uint256"
        }
      ],
      "name": "withdraw",
      "outputs": [
        {
          "name": "res",
          "type": "bool"
        }
      ],
      "payable": false,
      "stateMutability": "nonpayable",
      "type": "function"
    },
    {
      "constant": true,
      "inputs": [
        {
          "name": "customer",
          "type": "address"
        }
      ],
      "name": "getBalanceOf",
      "outputs": [
        {
          "name": "",
          "type": "uint256"
        }
      ],
      "payable": false,
      "stateMutability": "view",
      "type": "function"
    }
  ],
  "bytecode": "0x608060405234801561001057600080fd5b50610383806100206000396000f300608060405260043610610062576000357c0100000000000000000000000000000000000000000000000000000000900463ffffffff16806347e7ef24146100675780639b96eece146100cc578063e65f2a7e14610123578063f3fef3a314610152575b600080fd5b34801561007357600080fd5b506100b2600480360381019080803573ffffffffffffffffffffffffffffffffffffffff169060200190929190803590602001909291905050506101b7565b604051808215151515815260200191505060405180910390f35b3480156100d857600080fd5b5061010d600480360381019080803573ffffffffffffffffffffffffffffffffffffffff169060200190929190505050610210565b6040518082815260200191505060405180910390f35b34801561012f57600080fd5b50610138610259565b604051808215151515815260200191505060405180910390f35b34801561015e57600080fd5b5061019d600480360381019080803573ffffffffffffffffffffffffffffffffffffffff169060200190929190803590602001909291905050506102a2565b604051808215151515815260200191505060405180910390f35b600081600160008573ffffffffffffffffffffffffffffffffffffffff1673ffffffffffffffffffffffffffffffffffffffff168152602001908152602001600020600082825401925050819055506001905092915050565b6000600160008373ffffffffffffffffffffffffffffffffffffffff1673ffffffffffffffffffffffffffffffffffffffff168152602001908152602001600020549050919050565b6000326000806101000a81548173ffffffffffffffffffffffffffffffffffffffff021916908373ffffffffffffffffffffffffffffffffffffffff1602179055506001905090565b600081600160008573ffffffffffffffffffffffffffffffffffffffff1673ffffffffffffffffffffffffffffffffffffffff1681526020019081526020016000205410806102f15750600082145b156102ff5760009050610351565b81600160008573ffffffffffffffffffffffffffffffffffffffff1673ffffffffffffffffffffffffffffffffffffffff16815260200190815260200160002060008282540392505081905550600190505b929150505600a165627a7a72305820ce7e0af10694cb938dbfa81f5d066462b94b5c308ed776d2c21f0b03815260460029",
  "source": "pragma solidity ^0.4.22;\r\n\r\ncontract Bank {\r\n\r\n    address owner;\r\n\r\n    mapping (address => uint) balances;\r\n\r\n\r\n    function enroll() returns(bool){\r\n        owner = tx.origin;\r\n        return true;\r\n    }\r\n\r\n    \r\n    function deposit(address customer,uint value) returns (bool res) {\r\n        \r\n        balances[customer] += value;\r\n        return true;\r\n    }\r\n\r\n   \r\n    function withdraw(address customer, uint amount) returns (bool res) {\r\n       \r\n        if (balances[customer] < amount || amount == 0){\r\n            return false;\r\n        }\r\n        balances[customer] -= amount;\r\n\r\n        return true;\r\n    }\r\n\r\n    function getBalanceOf(address customer) constant returns(uint){\r\n        return balances[customer];\r\n    }\r\n\r\n}",
  "sourcePath": "C:\\Users\\akhil\\desktop\\projects\\new\\contracts\\Bank.sol",
  "compiler": {
    "name": "solc",
    "version": "0.4.24+commit.e67f0147.Emscripten.clang"
  },
  "schemaVersion": "2.0.1",
  "updatedAt": "2018-12-31T07:28:29.449Z"
}